:020000022000DC
:1070000000000420BD720200E5720200E772020077
:10701000E9720200EB720200ED7202000000000053
:10702000000000000000000000000000EF720200FD
:10703000F172020000000000F3720200F57202001B
:107040003DA30200F772020049AC0200F772020091
:10705000F7720200F772020049A70200F7720200FD
:10706000F7720200F7720200F7720200F772020074
:10707000F7720200F7720200F7720200F772020064
:10708000F7720200898E0200F7720200F7720200A6
:10709000F7720200F77202001DE00200F7720200B0
:1070A000F7720200F7720200F7720200F772020034
:1070B000F7720200F77202000000000000000000FA
:1070C000F7720200F7720200F7720200F772020014
:1070D000F7720200F7720200F7720200F772020004
:1070E000F7720200F7720200F7720200000000005F
:1070F00000000000F772020000000000F7720200BA
:10710000000000000000000000000000000000007F
:10711000000000000000000000000000000000006F
:10712000000000000000000000000000000000005F
:10713000000000000000000000000000000000004F
:10714000000000000000000000000000000000003F
:10715000000000000000000000000000000000002F
:10716000000000000000000000000000000000001F
:10717000000000000000000000000000000000000F
:1071800000000000000000000000000000000000FF
:1071900000000000000000000000000000000000EF
:1071A00000000000000000000000000000000000DF
:1071B00000000000000000000000000000000000CF
:1071C00000000000000000000000000000000000BF
:1071D00000000000000000000000000000000000AF
:1071E000000000000000000000000000000000009F
:1071F000000000000000000000000000000000008F
:1072000010B5054C237833B9044B13B10448AFF3E0
:1072100000800123237010BDA82B00200000000077
:107220004405030008B5034B1BB103490348AFF302
:10723000008008BD00000000AC2B002044050300C6
:10724000A3F5803A704700BF174B002B08BF134BC4
:107250009D46FFF7F5FF00218B460F461348144A61
:10726000121A07F0C5F80E4B002B00D098470D4BB3
:10727000002B00D098470020002104000D000D488D
:10728000002802D00C48AFF3008007F07FF8200000
:10729000290004F0E9FF07F065F800BF00000800CE
:1072A000000000000000000000000420A82B0020C7
:1072B0001C3F002000000000000000000649074AB3
:1072C000074B9B1A03DD043BC858D050FBDC02F08F
:1072D000BDFCFFF7B9FF000054060300E82A0020B8
:1072E000A82B0020FEE7FEE7FEE7FEE7FEE7FEE74D
:1072F000FEE7FEE7FEE7FEE7704700BF00B583B09C
:10730000044B0093044A402300F036F803B05DF8C4
:1073100004FB00BF1D730200C82B002002B32DE93F
:10732000F843114B114E8846144643F001090327D8
:107330000025224608EB0501002005F0CDF80346A4
:107340001D444FF47A40E41A23B9337833B1C84767
:10735000013F06D001233370002CEAD1BDE8F88349
:1073600070473770BDE8F883E0F60200C42B0020B8
:10737000704700BF05F08EB9F0B595B000241D46EA
:107380000E460846174602F0F7FA30462346082212
:10739000099505A91A9D08970D950A948DF82C401A
:1073A0000C9402F04DFB9DF814308DF81140DDE98E
:1073B000061003F00302012ACDE9020128D0022AB7
:1073C00004D0304602F0DCFA15B0F0BDBDF816501E
:1073D000C3F3C2038DF81030C5F389150827082DB3
:1073E0002C4628BF08243B4622460EA9304602F010
:1073F00027FB2D1B214608AB02AA0EA8274400F04C
:1074000011FD002DEBD1304602F0BAFA15B0F0BDF7
:10741000BDF81470059DC7F38312C3F3C2040EA90F
:107420003046920008238DF81040C7F3831702F00E
:1074300007FBC5F3952508AB3A4628460EA90093ED
:1074400002AB00F077FC304602F09AFA15B0F0BDBE
:1074500008B5FFF78FFF0448042100F0E9FB034B58
:1074600001225A7108BD00BF3C060300E82A002033
:10747000064B074810B500221A7002F031FA044694
:1074800010B9044802F052FB204610BDD82C002051
:10749000A80503001CF7020099B10E4B0E495B1AB8
:1074A000DB0815D030B400220C4D02E001329342CB
:1074B0000BD035F822408442F8D151F8320030BC6C
:1074C0007047054951F830007047002030BC7047C4
:1074D000184670473C060300BC050300A82B00209B
:1074E000094B013903EBC00003290BD8DFE801F099
:1074F0000402080604207047022070474079704754
:107500000079704700207047BC0503002DE9F04367
:107510008C4CD4E901239A4285B060D00023C4F892
:107520001834BFF34F8FA568EAB2D31C04EB830174
:1075300014F82330580718D566680B7803F0030356
:10754000012B42D0022B03D14B88023505EB93155A
:10755000EAB2D4F81804D31C04EB830128B9AE4274
:1075600039D914F823305B07E7D404EB82026B1C93
:10757000D2680192DBB204EB830302F00302DB6802
:107580000293022A05F102062DD0012A00F08D8017
:10759000D4F810543DB12B6828469B689847EB6897
:1075A0001D68002DF7D16848684B6949C01AC008AA
:1075B000000440F0020000F0D1F8D4E90130C01A14
:1075C00018BF012005B0BDE8F0830B880235C3F376
:1075D00083131D44BCE7A66005B0BDE8F08300201E
:1075E00005B0BDE8F083BDF806305A48C3F38918EA
:1075F0004546502D28BF502565F38F1305F108012E
:10760000ADF8063002F06EF907460028C0D002F04F
:10761000B3F9002301A90822384602F0DDF9F3434B
:10762000DBB20133B5EB830F4FEA8309F1B277D9AF
:10763000A5EB0905033104EB810108234A463846CE
:10764000EDB202F0C9F944492A4609F10803384667
:1076500002F0C2F908F1030806EB9806D4F81834D2
:10766000002B6AD1D4F8105465B1EB685A792846DA
:107670003946002A5DD02B681B689847EB681D6867
:10768000002DF2D1384602F07BF900230DF1030002
:107690008DF8033001F064FAD4F8183403B9A66009
:1076A0009DF8030001F082FA87E7BDF8043029480D
:1076B000C3F38312062A28BF0622911C62F38913A2
:1076C0008900ADF8043002F00DF9074600283FF4B8
:1076D0005FAF02F051F90023082201A9384602F0F9
:1076E0007BF9BDF8043013F4707FB7D06FF0010858
:1076F000A8EB05080825F1B203312B46042204EB60
:107700008101384602F068F9BDF80420013608EB23
:107710000603C2F383129A4205F10405EBD89DE7F4
:1077200003312A4604EB81010823384602F054F95C
:1077300090E71D68002D98D1A4E7384602F020F9A3
:107740003BE700BFD82C0020E4050300BC05030084
:1077500004F70200A8050300E42C00202DE9F04FF7
:107760005E4C87B0002306460DF10B008DF80B3000
:107770000F4601F0F5F9D4E9015303F580735B1B63
:10778000012B7DD804F21C4804F5836A04F21449E5
:107790001AE0BDF80E30C3F389130333090C0BEB69
:1077A000930B4846019101F083FC0199002839D0E0
:1077B0004046C4F808B001F04FFCD4E9013202F5AC
:1077C0008072D21A012A5CD80121404601F044FCA3
:1077D000504601F05DFC484601F05AFCA368DAB25D
:1077E000D11C04EB810014F8211001F0040C4907AE
:1077F00028D404EB8202591CD2680392C9B204EB6C
:10780000810102F00302012AC96803F1020B30D0A2
:10781000022ABED000214846019101F049FC01999D
:107820000028C5D14046C6E743880EEB9313DAB271
:10783000D11C04EB810014F8211001F0040CBCF100
:10784000000FD6D0017801F0030101290BD00229E5
:1078500003F1020E02F10301E6D004EB8100BCF15A
:10786000000FEFD1C5E702880233C2F3831213443D
:10787000DDE7BDF80C30C3F38313090C9B4490E79C
:107880002B46DAB20332023305219DF80B0044F88F
:107890002210636001F08AF90021114801F0B2FB67
:1078A00080F31000F1006B1C01F03801DBB2EDB287
:1078B00004EB830341F001010004033540EA16465E
:1078C00041EA8727DE6044F8257023781BB1FFF773
:1078D0001DFE0028FBD107B0BDE8F08FD82C00209A
:1078E000F43000202DE9F04F634C87B000230646AA
:1078F0000DF10B008DF80B300F46904601F030F97A
:10790000D4E9015303F580735B1B022B7FD804F28B
:107910001C4904F5836B04F2144A1BE0BDF80E20E9
:10792000C2F389120332090C03EB92035046CDE9EE
:10793000003101F0BDFB019900283AD0009BA36003
:10794000484601F089FBD4E9013202F58072D21A6F
:10795000022A5DD80121484601F07EFB584601F01D
:1079600097FB504601F094FBA368DAB2D11C04EBFC
:10797000810014F8211001F0040C490729D404EB0C
:107980008202591CD2680392C9B204EB810102F051
:107990000302012AC96803F1020331D0022ABDD0D3
:1079A00000215046CDE9003101F082FB0199002809
:1079B000C4D14846C5E743880EEB9313DAB2D11C15
:1079C00004EB810014F8211001F0040CBCF1000F4D
:1079D000D5D0017801F0030101290BD0022903F170
:1079E000020E02F10301E6D004EB8100BCF1000FAE
:1079F000EFD1C4E702880233C2F383121344DDE7F8
:107A0000BDF80C20C2F38312090C13448EE72B46F9
:107A1000DAB20332033345219DF80B0044F82210FB
:107A2000636001F0C3F8AB1CDBB204EB83030021FD
:107A30001248C3F80C8001F0E5FA80F31000F10061
:107A40006B1C01F03801DBB2EDB204EB830341F0B3
:107A500041010004033540EA164641EA8727DE600B
:107A600044F8257023781BB1FFF750FD0028FBD1A7
:107A700007B0BDE8F08F00BFD82C0020F430002004
:107A80002DE9F04F684C89B0002506460DF1130032
:107A90001F468DF813508846039201F061F8D4E92F
:107AA000015303F580735B1B032B00F2828004F209
:107AB0001C4904F5836B04F2144A1BE0BDF8162040
:107AC000C2F389120332090C03EB92035046CDE94D
:107AD000013101F0EDFA029900283BD0019BA3602F
:107AE000484601F0B9FAD4E9013202F58072D21A9F
:107AF000032A5FD80121484601F0AEFA584601F04A
:107B0000C7FA504601F0C4FAA368DAB2D11C04EBFC
:107B1000810014F821C01CF0040F0CF0040128D1DE
:107B200004EB8202591CD2680592C9B204EB8101B0
:107B300002F00302012AC96803F1020332D0022ACB
:107B4000BCD000215046CDE9013101F0B1FA0299D3
:107B50000028C3D14846C4E743880EEB9313DAB23A
:107B6000D11C04EB810014F8211001F0040100295C
:107B7000D6D090F800C00CF0030CBCF1010F0BD074
:107B8000BCF1020F03F1020E02F1030CE4D004EB8E
:107B90008C000029EDD1C3E702880233C2F38312BF
:107BA0001344DCE7BDF81420C2F38312090C13441C
:107BB0008CE72B46DAB20332043385219DF813009B
:107BC00044F82210636000F0F1FFAA1CEB1CDBB24A
:107BD000D2B204EB830C04EB8202039B1348D36004
:107BE0000021CCF80C7001F00DFA80F31000F100C8
:107BF0006B1C01F03801DBB2EDB204EB830341F002
:107C000081010004033540EA164641EA8821DE601E
:107C100044F8251023781BB1FFF778FC0028FBD12E
:107C200009B0BDE8F08F00BFD82C0020F430002050
:107C300030B4154DD5F810140446002071B10B4630
:107C400001E01B6853B1DB681A798242F9D1013037
:107C50000A28F3D14FF0FF3030BC7047E368187149
:107C6000D5F810344BB1DA68E36812681A60D5F8B9
:107C70001034DB681C6030BC7047C5F81044E26803
:107C8000136030BC704700BFD82C002038B5084BBB
:107C9000D3F8104401251D704CB1E3685D71236871
:107CA00020465B689847E3681C68002CF5D138BD16
:107CB000D82C002030B5C38885B004460D461BBBC8
:107CC000217A05291ED0627A82B9134AA08852F817
:107CD000212003920021FFF7DFFB039A0F4903469F
:107CE000284605B0BDE8304001F05EBAA088FFF735
:107CF000F7FB0B4B0B4953F82020284601F054FAB0
:107D0000217AE2E705B030BD074A00920749084AE8
:107D1000284601F049FAD3E7F4F7020054F70200CD
:107D2000D0F7020050F7020048F7020030F70200D7
:107D300028F702002DE9F04385B04FF0000C0C9CB1
:107D4000814694F80C8084F80CC00E4617461846FD
:107D500021461D46FFF7AEFF062F09D8DFE807F0E2
:107D6000042E343B444F1F004946204601F01CFAC4
:107D70002B7A052B05D06B7A5BB92749204601F099
:107D800013FA204601F004FA84F80C8005B0BDE82F
:107D9000F083224A2249204601F006FAEDE7D6E9AF
:107DA0000413F2680393B3680291CDE900324946A7
:107DB000D6E90023204601F0F7F9D9E732684946B1
:107DC000204601F0F1F9D3E7D6E9002349462046E1
:107DD00001F0EAF9CCE7B3680093D6E900234946FD
:107DE000204601F0E1F9C3E7D6E90232019200939F
:107DF000D6E900234946204601F0D6F9B8E7D6E98E
:107E00000321B3680291CDE900324946D6E9002347
:107E1000204601F0C9F9ABE760F7020048F702001D
:107E200050F70200082900D970472DE9F04F9B4612
:107E300083B000241B7B8BF80C400D460646594648
:107E4000104690460193DFF8D0902C4FFFF732FF99
:107E500005E0325D013401F0A7F9082C09D0A542F4
:107E600039465846F5D84946013401F09DF9082CA9
:107E7000F5D12349DFF8A490224C234F584601F056
:107E800093F94FF0000A0DE0D15D11F0970F08BF94
:107E90002E22214658460AF1010A01F085F9BAF16D
:107EA000080F10D0554505D916F80A207E2AEBD9BF
:107EB0002E22EEE7494658460AF1010A01F074F90C
:107EC000BAF1080FEED198F80830052B02D098F8D7
:107ED000093063B90D49584601F066F9584601F07A
:107EE00057F9019B8BF80C3003B0BDE8F08F084ABE
:107EF0000849584601F058F9ECE700BF64F7020062
:107F000070F7020074F70200A903030060F7020093
:107F100048F7020050F702006CF702005CF702001D
:107F200038B5174B1D783DB3164B1968C0B2002306
:107F30000C4604E00133AB4204F108041CD011F8F4
:107F400033209042F6D102F0EFFB6378A3F10103F6
:107F5000B3FA83F35B09834200D038BD0A4BD3E9FF
:107F600000231343F9D1094B094819680022BDE8E1
:107F70003840490800F018BC00231B78FFDE00BF22
:107F800090310020E0310020B831002094310020F1
:107F9000983100202DE9F04FDFF8548298F8003036
:107FA00083B0002B00F01981DFF848928C4F8D4E82
:107FB00000254FF0010A3C6814F8350002F0B4FBCC
:107FC00004EBC50314F835405B784FEA540C14F009
:107FD000010E16F80C10A3F10103B3FA83F314BFDA
:107FE0000A0901F00F025B09042A00F2A080DFE811
:107FF00002F0725D32200300834240F0AB80BEF19C
:10800000000F0CBFF0230F2303EA01030CBF032171
:108010003021194306F80C1098F8002001359542DC
:10802000C9DBD9E90023134340F0CD8003B0BDE89C
:10803000F08F83427BD0BEF1000F0CBFF0230F23E3
:1080400003EA01030CBF04214021194306F80C1078
:1080500098F80020E2E783426CD1BEF1000F0CBF1C
:10806000F0230F2303EA010398F800200CBF03213B
:108070003021194306F80C10002AD2D0D7F800C0DE
:108080000023614603E0934201F10801C6D01CF8C9
:108090003300A04203F10103F5D14B68002BBDD0A2
:1080A00020460121984798F80020B7E7834219BF7E
:1080B0000020034602232020BEF1000F0CBFF02257
:1080C0000F2201EA020118BF03460B4306F80C30E9
:1080D00098F80020A2E7834229D1BEF1000F14BF17
:1080E0000F23F02303EA010314BF102101211943D8
:1080F0000DF107004FF0000306F80C108DF8073063
:1081000000F02EFDD9E90032A4F12001C4F12000D5
:108110000AFA01F12AFA00F001430AFA04F41143C1
:1081200023439DF80700C9E9003100F03FFD98F8AE
:10813000002073E7BEF1000F0CBFF0230F2303EA0A
:1081400001030CBF01211021194306F80C1098F807
:10815000002063E7BEF1000F14BF0F23F02398F84F
:108160000000194006F80C1098B1D7F800C00023A1
:10817000624603E0834202F108020AD01CF8331081
:10818000A14203F10103F5D1536813B10021204648
:1081900098474FF000030DF107008DF8073000F00D
:1081A000DFFCD9E90032A4F12001C4F120000AFA71
:1081B00001F12AFA00F001430AFA04F422EA01016B
:1081C00023EA0403ADE7084B084819680022490870
:1081D00000F0EAFA03B0BDE8F08FDFF8189020E76E
:1081E000E0310020C031002094310020983100207F
:1081F00090310020B8310020092A43D92DE9F041FF
:1082000082B0144606460D4602F026F9002832D008
:10821000214A2249224B16600D7022481C60002121
:10822000202206F0E5F8204B002000216C1EC3E957
:108230000001E4B245B3DFF87C8006EBC4040327F9
:1082400002E0A64220D01C469DF80630A578207892
:108250008DF8047023F00703424601A98DF806301B
:108260008DF8055002F002F9A4F108030028E8D0C7
:1082700002B0BDE8F08102F097F80028C8D002B043
:10828000BDE8F08107207047084A0948002100F046
:108290007DFA02B0BDE8F081E0310020903100208D
:1082A00094310020C0310020B8310020957F0200B9
:1082B00014F80200217F020070B5084D2B785BB1E5
:1082C000074E00243368012113F8340002F0C0F98E
:1082D0002B780134A342F5D8002070BD90310020E6
:1082E000E031002000B585B00346002101AA44F228
:1082F0000100CDE90111039300F004F805B05DF829
:1083000004FB00BF10B572B6FFF7C0FCFFF7FEF824
:108310000028FBD1104B114C1149E41AE408240445
:1083200044F00100FFF71AFA0E4B1B68DB0700D57B
:1083300000BE0D4944F00200FFF710FABFF34F8F63
:108340000A490B4BCA6802F4E0621343CB60BFF3E7
:108350004F8F00BFFDE700BFBC050300E40503002D
:1083600018F80200F0ED00E024F8020000ED00E053
:108370000400FA0559B142B1531E1A4005D182607A
:1083800001608380C26010467047092070470E204C
:10839000704700BF10B48468C26803468088121B0F
:1083A000904203D204205DF8044B7047DA681C68E1
:1083B00002400020A154DA680132DA605DF8044B13
:1083C000704700BF03468068DA6890420DD010B451
:1083D00098689A881C6802400020A25C0A709A681B
:1083E00001329A605DF8044B70470520704700BF6A
:1083F000D0E90223D1E90201994208BF90422CBF83
:1084000001200020704700BF2DE9F04F2DED028BB9
:1084100085B0064600F0F6FC40B1B54AD2E900311D
:1084200013F1807341F10001C2E9003100213046AF
:1084300000F004FDAF4C60B1236853B1AE4B25682A
:108440001B7823B11DB12B7F002B40F01C81002332
:1084500023600121304600F0F1FC002840F0F68056
:10846000A64803A900F070FD78B3A54DDFF8888217
:10847000A24F0BE0002B00F0CD8003A9384600F09E
:1084800093FD03A9384600F05FFDF0B10378012B9E
:1084900012D0022BEED128464FF0000901F07EFBEE
:1084A00030B180F81C90284601F078FB0028F8D104
:1084B000012388F80030E0E741682368994200F022
:1084C000BA80284601F074FBD7E7DFF834828D4F7D
:1084D000DFF81C9208EE106A37E0404601F05EFBC0
:1084E00005463846AB68EA680193009200F0B6FC96
:1084F000854E8446D9E90001D6E9002310EB0C0033
:1085000041F10001994208BF9042DDE9002303D206
:1085100010F1807041F10001B3EB000A62EB010B36
:10852000BAF1010F7BF1000329DBBAF5350F6BD2ED
:10853000AA684FF496030021384600F0DDFB0028BE
:108540005AD00D281FD000232360404601F02CFB99
:10855000002873D02368002BBFD02368D0E9020124
:10856000D3E90223994208BF904248D223681B7F77
:10857000002BB2D02168404601F0FCFAADE70021A3
:10858000384600F04FFC5C4B1B78002BDBD02B7F78
:10859000002BD8D0384600F061FC8446D9E90001B0
:1085A000D6E9002310EB0C0041F10001994208BF0D
:1085B000904203D210F1807041F10001D5E902230D
:1085C000994208BF904259D32B6903B92B77D5E95B
:1085D0000530984729690029B5D02B7F002BB2D0F0
:1085E000D5E90223521843F10003C5E902232946C5
:1085F000404601F0BFFAA6E72368BBB1256005B08D
:10860000BDEC028BBDE8F08F384600F027FC3F4AF6
:1086100002448EE743681A7F002A7FF42EAF0122BE
:108620001A774168284601F0A5FA26E718EE100AE5
:1086300000F034FBE2E7002323601EE72368002BF1
:10864000DDD118EE100A00F02DFBD8E72D482E4D95
:1086500000F004FC264BD3E90089D5E9002318EB90
:10866000000849F10009994508BF904503D218F167
:10867000807849F10009C5E90089F1E629464046BC
:1086800001F078FA5FE71F4800F0E8FB184A1E4B3C
:10869000D2E90089D3E9002318EB000849F1000969
:1086A000994508BF904503D218F1807849F1000937
:1086B000D5E90223994508BF904529D32B6903B911
:1086C0002B77D5E905309847296900293FF4BFAEDB
:1086D0002B7F002B3FF4BBAED5E90223521843F1A8
:1086E0000003C5E902230648294601F043FAAEE635
:1086F000E831002068320020F03100204C320020A8
:1087000044F80200F02A002060320020FFFFB4008D
:108710000248294601F02EFA99E600BF44F802000B
:1087200010B5134B13491B68134882B058220193AC
:10873000082300F0B3FB044610B1204602B010BD80
:108740000E4A0F4801A900F049FA04460028F4D166
:108750000B48012100F04CFB01231946094A084847
:1087600000F0A4FA084B012220461A7002B010BD96
:1087700040F80200F43100204C320020098402004D
:10878000F02A0020FFFF7F00F03100204AB1A1F164
:1087900001010368B1FA81F14909C3E9041200201B
:1087A00070470720704700BF037F0BB10020704760
:1087B000F0B5826183B004461A480D4600F04EFBC6
:1087C000194B1A49D3E90023D1E90067121843F184
:1087D0000003BB4208BFB24203D212F1807243F1E0
:1087E00000035219216943F10003C4E9022301B1D6
:1087F00025610F4801A900F069FB48B100254460DC
:10880000057001A90A4800F08FFB20B903B0F0BD44
:10881000042003B0F0BD034800F024FB284603B059
:10882000F0BD00BFF02A0020E831002060320020B7
:108830004C32002030B5002583B00446057701A9ED
:108840000B4800F043FB78B101224460027001A99B
:10885000074800F069FB08B903B030BD054800F0D7
:1088600001FB284603B030BD042003B030BD00BF7B
:108870004C320020F02A002030B50478012C83B05F
:1088800004D0022C2DD0ECB103B030BD037A002B04
:108890003CD04368364D19782846FFF77BFD002809
:1088A00054D0344B01901B688DF8004068469847BF
:1088B000A968EB68AA885B1A9A4227D22E4B01223C
:1088C0001A70E1E72D492E48FFF77CFD00282ED0D5
:1088D000284B03221B688DF800206846984703B098
:1088E00030BD284B284D1A78C168AA5C01918DF8DB
:1088F0000040B2B9254903F10C00012202F020FC2E
:108900001C4B68461B68984703B030BD1D4B1E4A80
:108910001B781E49D35C0122A3B11D4802F0E4FE7E
:10892000B2E71A49181D012202F0DEFEE8E71548F9
:10893000154A0378D35CA3B110490122043002F038
:108940006BFEA1E7134802F0FBFB9DE7AA68EB680A
:108950009A42ADD0074B8DF800001B6868469847D7
:10896000A6E7064901220C3002F076FB8CE700BF37
:10897000703200206C3200208032002098320020BB
:1089800084320020F82A0020903E002094320020FB
:10899000FC2A0020042B00202DE9F041334D8AB041
:1089A0002A60002956D08A8880460D4630480968DA
:1089B0001C46FFF7DFFC10B10AB0BDE8F081AA89C0
:1089C000A9682C48FFF7D6FC0028F5D12A4E98F864
:1089D00010C02A4F0FCE02AD0FC596E80F0098F8D1
:1089E0001160BCF1000C85E80F0018BF4FF0010CBE
:1089F000D8F804300193002ED8F81430D8F8085075
:108A00008DF8244014BF0E220022D8F80C40D8F86C
:108A100000608DF81D200893194A019B8DF81CC039
:108A200002A93846CDE904450396029301F008FCFB
:108A30000028C1D1D8F80030124A01331070BBD0E1
:108A4000114A3B78D35C4BB11049381D012202F02A
:108A50004BFEB1E707200AB0BDE8F0810B4907F1F2
:108A60000C00012202F06CFBA6E700BF6C32002074
:108A7000703200208432002050F80200F82A0020D2
:108A80007988020080320020903E0020943200203D
:108A900070B5114D014611482E78FFF793FC04463E
:108AA0000EB9204670BD0E480E4A0378D35C0022F2
:108AB0002A7053B10C490430012202F015FE00283F
:108AC000EFD0FFF70FFC204670BD074901220C30A4
:108AD00002F036FBF3E700BF803200207032002046
:108AE000F82A0020903E00209432002070B5014604
:108AF0001548FFF74FFC044608B1204670BD134DE2
:108B0000134E2B78F35CA3B1281D02F0DFFD002883
:108B1000F3D110490C48FFF755FC0028EDD12B7814
:108B20000C49F35C01224BB1BDE870400A4802F0E9
:108B300073BD05F10C0002F0F7FAE8E7BDE87040FC
:108B4000064802F089BA00BF84320020F82A0020CB
:108B5000903E002098320020FC2A0020042B0020A8
:108B600070B4EFF3108472B60D4B9A68AAB90D4930
:108B70000D4E01259D60D1F8805035401D60C1F833
:108B80008060D1F884505D604FF0FF33C1F88430CD
:108B9000027004B962B670BC704701230370F8E735
:108BA000843E002000E100E0FC06FFBD094B9A680E
:108BB0007AB170B910B4EFF3108172B6064A1C682E
:108BC00014605C685460986001B962B65DF8044B4B
:108BD00070477047843E002000E100E070B5274CEC
:108BE0004379274E04EBC30546F823202D79002D49
:108BF00037D103680A88C3F8082590F904308A78C9
:108C0000002B26DB03F1604303F561435201D2B22E
:108C100083F8002390F90430002B07DB194903F097
:108C20001F0501225B09AA4041F823204279164B17
:108C3000164D44F83200581B04EBC204C00801234F
:108C400000041349237140F00300FEF787FD002064
:108C500070BD104903F00F0352011944D2B20A76D5
:108C6000D8E70A4B08480C49C01AC008000440F075
:108C70000200FEF773FD082070BD00BF9C3200208B
:108C8000A432002000E100E0F4050300BC0503006D
:108C900094F80200FCEC00E070F802000368012286
:108CA0001A607047036801225A607047F0B4046884
:108CB0004FF480358D40C4F80853066801F1500424
:108CC000C6F84853A4000668A4B20027375182B002
:108CD00036590468019601F5A87122F07F42019E81
:108CE00044F821200268C2F8445313B10368C3F862
:108CF000045302B0F0BC70472DE9F04704464FF42E
:108D0000803600688E40C0F848632068C0F8086369
:108D1000206800EB81058A46D0F80415D5F8400597
:108D2000C5F840150AF15005AD002768ADB24FF007
:108D3000000847F8058082B0401A7F59009720F05C
:108D40007F40012822F07F479946009A41D022684F
:108D5000D2F80455C2F844637A1B22F07F42012AFC
:108D60000AF5A87125D0226842F821702068D0F851
:108D700004557A1BC9F1FF13013A03F57F4322F032
:108D80007F42934211D342B1C0F84463236800206C
:108D9000C3F8046302B0BDE8F087013740F82170E2
:108DA0002068D0F804359D42EED00D2002B0BDE819
:108DB000F08720680D4B013740F8217043F0010324
:108DC0004FF4806098472068D0F804359D42DBD08E
:108DD000EBE7064A4FF4806042F0010290472268B8
:108DE00042F8058052590192019AB0E7B0F80200AA
:108DF00002680223C2F8443311B10268C2F8043396
:108E0000704700BF0368D3F8040100B9704700221F
:108E100082B0C3F80421D3F804310193019B0120EF
:108E200002B0704702684FF4803303FA01F1C2F8D0
:108E300048130368C3F80813704700BF5031890016
:108E4000036889B2585800B9704700225A5082B05E
:108E50005B580193019B012002B070470368D3F86F
:108E60000405704790F90430002B09DB5A090548C6
:108E7000403203F01F03012101FA03F340F82230CE
:108E8000704700BF00E100E0024A034B10681B6816
:108E9000184700BF9C320020A432002099B110B4C2
:108EA000B2FBF3F403FB1424A4B244B9C0E90014E8
:108EB00084608281C38120465DF8044B704709209D
:108EC0005DF8044B70470E20704700BF30B482B08D
:108ED00050E8013F9DB2C48925448489A54228BF3A
:108EE0002D1B0489A54202BFBFF32F8F002207E08C
:108EF000C5EA030540E80154002CE9D14FF0010216
:108F00008DF803200193019B9DF803200B602AB18B
:108F10000B880068184402B030BC704702F0FF03B1
:108F2000184602B030BC70470A884B889A4201D07C
:108F30000020704750E8012FC2EA024240E80123B6
:108F4000002BF7D10120704730B482B050E8023FC7
:108F50001FFAA3F5C488A54202BFBFF32F8F0022DA
:108F60000DE0C48925448489A54228BF2D1BC3EA8E
:108F7000054540E80254002CE8D14FF001028DF87D
:108F800003200193019B9DF803200B602AB14B88BD
:108F90000068184402B030BC704702F0FF03184666
:108FA00002B030BC704700BF0A884B889A4201D09B
:108FB0000020704750E8022FC2EA224240E8022314
:108FC000002BF7D1012070474A09012301F01F014E
:108FD00000EB820003FA01F100F022B801F01F0259
:108FE00001234909934000EB8100D94300F026B8E2
:108FF0004B0901F01F0150F82300C84000F00100A8
:10900000704700BF10B4034653E8000F0A4643E818
:10901000002494F0000FF7D15DF8044B704700BFB7
:1090200010B4034653E8002F42EA010043E800046D
:1090300094F0000FF6D15DF8044B704710B403466E
:1090400053E8002F02EA010043E8000494F0000F07
:10905000F6D15DF8044B704710B4034653E8002F77
:1090600002EB010043E8000494F0000FF6D15DF834
:10907000044B704710B4034653E8002FA2EB0100E5
:1090800043E8000494F0000FF6D15DF8044B7047FC
:1090900010B40346012253E8001F41EA020043E8EE
:1090A000000494F0000FF6D15DF8044B704700BF48
:1090B00010B40346002253E8000F00EA020143E81F
:1090C000001494F0000FF6D15DF8044B704700BF18
:1090D000B8B130B4D0E90112521A0468D2B2531EAA
:1090E0002160DBB242B101680A685C1E551C0D604C
:1090F0001370E3B2FF2BF6D103680020187130BC67
:1091000070470E20704700BFF0B583B004460025BD
:109110000DF107008DF80750FFF722FDD4E900316B
:109120001A688A4210D9511E19602168A3680F6815
:1091300012F8015C0A79268AE068DB1BDBB29A42EE
:1091400006FB050538BF0B719DF80700FFF72EFDE4
:10915000284603B0F0BD00BF30B5054683B00023FC
:109160000DF107000C468DF80730FFF7F9FC2A686F
:109170001368591C1160E9682A8A641AB4FBF2F476
:109180001C709DF80700FFF711FD03B030BD00BF54
:10919000826842B110B50446436901680069984786
:1091A0000023A36010BD70470EB400B582B00399D0
:1091B00021B104AB01AA019300F0ACF802B05DF854
:1091C00004EB03B0704700BF2DE9F04F164683B0A3
:1091D000B142DDE90C920F4605469A46C0F09580F3
:1091E0000B464FF00108B3FBF6F39E4208F101086D
:1091F000F9D9D04538BFD04612F00103019302D10E
:10920000B9F1000F5ED1AA68012403E00AF1FF3A28
:1092100006FB04F4BAF1010FF8D8B7FBF4F39E4251
:10922000F6D9DFF8ECA007E0B442B4FBF6F31AD3AA
:10923000AA681C46B7FBF3F31AF803B0BBF10A0F98
:1092400004FB137728D02B68511CA96003F802B0E7
:10925000D5E901329A42E7D32846FFF799FFB4FBDC
:10926000F6F3B442E4D2019B9BB1B9F1000F10D0E8
:109270002024C84509F1FF390BD2AB682A68591C74
:10928000A960D454D5E901329A4214D2B9F1000F41
:10929000EFD103B0BDE8F08F511C2B68A9604FF0EF
:1092A0000D019954D5E901329A42CCD32846FFF7F3
:1092B0006FFFAA68C7E72846FFF76AFFB9F1000FFA
:1092C000D7D1E6E793071AD42024AA68C84502F14B
:1092D000010199D22B68A9609C54D5E901329A42C8
:1092E00009F1FF3903D2B9F1000FEFD18CE728461D
:1092F000FFF74EFFAA68B9F1000FE7D184E7BAF192
:10930000000F0CBF30242024DFE74FF0010870E786
:10931000B8F80200002900F054822DE9F04FDFF880
:10932000B8950C7885B0064690460D464FF00D0A6C
:1093300010E00A2CB36800F0AD803268591CB160AF
:10934000D454D6E901329A4280F0A0802C78002CC7
:1093500000F087800135002C00F08380252CE8D1B7
:10936000294600270D4611F8012B2D2A00F0888090
:10937000302A00F088802B2A7AD02A2A00F099809F
:10938000A2F13003092B4FF000040BD804EB840446
:1093900002EB440415F8012FA2F13003092BA4F1CC
:1093A0003004F3D92E2A00F09080002301E015F854
:1093B000012F02F0FB016829F9D0252A00F07781FE
:1093C000583AD1B2202947D8202A45D8DFE812F0F0
:1093D000350144004400440044004400440044007B
:1093E000440044004400430113014400440044008D
:1093F000440013014400440044004400440044007D
:10940000D20044004400A200440094004400440000
:10941000350101209842024638BF1A460292002CBC
:1094200040F05081B80740F16E81002B40F04E8231
:109430001C46BBF1000FC0F20A827A0700F11A82C3
:1094400007F00302022A00F0EA81CDE900475946FD
:109450000A223046FFF7B8FE01352C78002C7FF445
:1094600079AF337B002B40F01C8105B0BDE8F08F55
:109470000D4611F8012B2D2A47F004077FF478AF31
:1094800047F001076EE747F002076BE73046FFF74A
:109490007FFE5BE73268591CB16002F803A0D6E991
:1094A00001239342FFF449AF3046FFF771FEB368E2
:1094B00043E7D8F800301A1DC8F800206A781C6805
:1094C0002E2A05F101057FF470AF6A78A2F130030E
:1094D000092B05F101054FF000033FF66AAF03EBDE
:1094E000830302EB430315F8012FA2F13001092990
:1094F000A3F13003F3D95CE7D8F80020111DC8F8B8
:10950000001011683046CDE900470A22FFF75CFEE3
:109510000135A2E7D8F800301A1DC8F8002017F06E
:109520000107D3F800B040F0F080BBF1000F03D08A
:10953000584604F085FF0746BC4240F24381002CA8
:1095400000F04081202205E0BC4200F03B81002C6D
:1095500000F03881B1683368481CB0605A54D6E9CD
:109560000130984204F1FF34EED33046FFF710FE8D
:109570002022E9E7D8F80020131DC8F80030B368AE
:1095800031681768581C3022B060CA54D6E90123EC
:10959000934280F0EF803268581C7821B060D1543B
:1095A000D6E901329A4280F0E0800F2F03D93B4682
:1095B0001B090F2BFCD84FF0805406E00F2C4FEA0C
:1095C00014137FF649AFB2681C46B7FBF4F319F8E1
:1095D00003B0BBF10A0F04FB137754D03368511C5E
:1095E000B16003F802B0D6E901329A42E6D33046C0
:1095F000FFF7CEFDE2E7D8F80020111DC8F80010F3
:10960000D2F800B08BEAEB72A2EBEB72092A7FF77B
:1096100000AFDFF8C8C2012011466329ACFB02E2AB
:1096200000F101004FEAD202F6DC9842024638BF50
:109630001A460292002C45D1F4E6D8F80020111DFC
:10964000C8F8001011683046CDE900471022FFF736
:10965000BBFD013501E7D8F800301A1DC8F800201D
:109660001C78B3680A2C00F011813268591CB16073
:10967000D454D6E901329A42FFF4EEAE3046FFF7F9
:1096800087FD0135E9E63368511CB16003F802A09B
:10969000D6E901329A42A1D33046FFF779FDB2688C
:1096A0009CE7304605B0BDE8F04FFFF771BDB368E9
:1096B0003168581CB060CA54D6E901329A42DDD2F2
:1096C0000135CAE6BBF1000F59DB7A0757D4B8075A
:1096D00002D5002B3FF4ADAEF9073FF5AAAE94B129
:1096E00020220299A142BFF4A4AEB168481CB06028
:1096F00030684254D6E90101814204F1FF3480F020
:10970000D480002CEDD1002493E69BF80030002B90
:1097100000F0E080B0685F46CBF101020A2B02EB5B
:10972000070B3CD0411CB16031680B54D6E90130C5
:10973000984226D217F8013F002BEFD15C457FF607
:109740008BAE202702E05C453FF486AEB2683368FA
:10975000511CB1609F54D6E901329A4204F1FF34A2
:10976000F1D33046FFF714FDEDE73046FFF710FD6B
:10977000B2681AE73046FFF70BFDB3680BE7013C10
:10978000A5E730460292FFF703FD17F8013F002BD3
:10979000D4D0029AB0680A2B02EB070BC2D1411C4D
:1097A000B160316801F800A0D6E901108842B9D350
:1097B0003046CDE90232FFF7EBFCDDE90232B0685A
:1097C000B0E770479BF80040002C3FF445AE0A2CF0
:1097D000B0680ED03368421CB2601C54D6E9013028
:1097E000984214D21BF8014F002C3FF435AE0A2CDE
:1097F000F0D13368421CB26003F800A0D6E9013012
:109800009842E7D33046FFF7C3FCB068E2E7304642
:10981000FFF7BEFC1BF8014F002CD8D11CE6002B33
:109820007FF413AE8CB130220299A142BFF40DAE89
:10983000B168481CB06030684254D6E901018142E9
:1098400004F1FF343BD2002CEED10024FDE5B168D9
:109850004A1CB26032682D205054D6E90121914251
:10986000CBF1000BFFF4ECAD30460393FFF790FC17
:10987000039BE5E5B1684A1CB26032682B20505466
:10988000D6E901219142FFF4DBADEDE73268591CC6
:10989000B16002F803A0D6E901239342FFF4E5AEDC
:1098A0003046FFF775FCB368DFE630460393FFF7F9
:1098B0006FFC039B2022002C7FF413AF23E730467C
:1098C0000393FFF765FC039B3022BCE7F9073FF5E4
:1098D000B0AD18E79B4631E7B8F80200CDCCCCCC50
:1098E000FFF7F6BB2DE9F041058A0331043D4E191F
:1098F0008046B6FBF5F6FFF707FCA0B3F6B24FF4CF
:109900008073013E0446C580C0F8008083802BD060
:109910000346002508E06279AE4202F1010262715D
:109920003860C0F800801FD040461F46FFF7ECFBB0
:10993000013503460028EED16779791E17D02246FB
:10994000013399421268FBD1D2F800805FB12668DA
:10995000002501E034463668214601354046FFF7D0
:10996000FBFBAF42F6D800242046BDE8F08120681A
:109970002146FFF7F1FBF6E704300121FFF76CBB4E
:109980002DE9F041012104460430FFF773FB10F08C
:10999000FF0301D0BDE8F0816779791E16D0224619
:1099A000013399421268FBD1D2F80080002FF1D028
:1099B0002668002501E034463668214601354046D8
:1099C000FFF7CAFBAF42F6D8BDE8F0812068214618
:1099D000BDE8F041FFF7C0BB2DE9F8430546C68856
:1099E0004079144606FB00F2043A04EB030C1F1DF9
:1099F000624538BFD41ABE428846B7FBF6F106FB73
:109A0000117002D801392D68FCD1371AA74228BF3E
:109A100027469CB14FF000090430E41B28443A4625
:109A200008EB090104F0D6FCA642B9442D6837467C
:109A30004FF0000028BF2746002CEDD1BDE8F88389
:109A40002DE9F8430546C6884079144606FB00F226
:109A5000043A04EB030C1F1D624538BFD41ABE4202
:109A60008846B7FBF6F106FB117002D801392D6864
:109A7000FCD1371AA74228BF27469CB14FF00009F6
:109A800004302918E41B3A4608EB090004F0A2FC54
:109A9000A642B9442D6837464FF0000028BF27463C
:109AA000002CEDD1BDE8F88341DF7047064A074B33
:109AB00010B5002414701C60BFF35F8F0449054883
:109AC00000F042F8204610BDB0320020B432002031
:109AD000D4F80200A832002000B583B000230DF1B5
:109AE00007008DF80730FFF73BF8F1EE103A23F04E
:109AF0009F03E1EE103ABFF35F8F0B4B4022C3F898
:109B000084219DF80700FFF751F804F081FA28B985
:109B100020BF40BF20BF03B05DF804FBFFF7C4FFC8
:109B200003B05DF804FB00BF00E100E082680023A1
:109B3000936082681361826853618268D36082682F
:109B4000536082681360704701600B6843604A6825
:109B5000934204BF00234360704700BF436843B192
:109B6000026891680B4443605268934204BF00232B
:109B70004360704770B54468064620680D4618B9C2
:109B800008E02468206828B1B3682946984700286F
:109B9000F7D120682860256070BD00BF4368186851
:109BA00008B102681A60704743681868704700BFC0
:109BB0004368186818B908E00346006828B1814274
:109BC000FAD10A681A60012070477047114910B431
:109BD000A1F5947205E052F83330984238BF21461F
:109BE0000CD28C1AE30F03EBE4035B10914202EBFF
:109BF000C304F0D808485DF8044B704702D904F15B
:109C00000802EEE76068044B5DF8044B002808BFCB
:109C10001846704714FE0200D8FC020070B5161EEC
:109C200007DD0C468D1914F8010BFEF75FFFA54206
:109C3000F9D1304670BD00BF10B50C462046FEF786
:109C400027FF0528FAD0012010BD00BF10B4954BA6
:109C50001B685C1C00F0C480934A082B12682ED04D
:109C6000904B1B68082B7ED0591C21D08E4A12685D
:109C7000082B00F0D7808D4AD2F8883043F4700367
:109C8000C2F88830BFF34F8FBFF36F8F4FF01023B0
:109C9000D3F80022002AC0F2D380D3F80432002B7C
:109CA000C0F2CE80824B834A1A605DF8044B704745
:109CB000814A824B12681B78C2F30312D8E7032A49
:109CC00040F2A180784A1268082BC9D1032AC7D86C
:109CD0004FF080527A4BD2F80414C3F82015D2F812
:109CE0000814C3F82415D2F80C14C3F82815D2F8B8
:109CF0001014C3F82C15D2F81414C3F83015D2F888
:109D00001814C3F83415D2F81C14C3F84015D2F84F
:109D10002014C3F84415D2F82414C3F84815D2F817
:109D20002814C3F84C15D2F82C14C3F85015D2F8E7
:109D30003014C3F85415D2F83414C3F86015D2F8AF
:109D40003814C3F86415D2F83C14C3F86815D2F877
:109D50004014C3F86C15D2F84424C3F87025514B55
:109D60001B68082B80D1504B1A68032A83D8554BA7
:109D70009B5C13B1544B55491960554B9B5C6BB1BF
:109D8000484B54491B68484AFB20C1F81805082B6A
:109D900012687FF469AF032A3FF66DAF4E4B9B5CB0
:109DA000A3B14E4B4E4C196820683F4AA3F59473FB
:109DB00020F00F001B68126801F00F010143082B0F
:109DC00021607FF451AF032A3FF655AF454B9B5CB2
:109DD0005BB3344B444A1B684FF40071116043E796
:109DE000364A354B12781B68082A4FEA13137FF462
:109DF00037AF13F00C0F06D02F4A304B12681B7888
:109E0000C2F3031260E7274B1B684FF0804200212A
:109E1000581CC2F80C11C2F81011C2F838157FF4A2
:109E200051AFE9E7032A3FF626AF4FF08043D3F85E
:109E30000024D20744BF6FF00102C3F800241AE7E0
:109E40002A4A0123C2F80435D2F80034002BFBD093
:109E50004FF010231221254AC3F80012D2F8003423
:109E6000002BFBD04FF010231221204AC3F804121C
:109E7000D2F80034002BFBD000231C49C2F8043573
:109E8000D1F80034002BFBD0BFF34F8F0749184B9C
:109E9000CA6802F4E0621343CB60BFF34F8F00BF88
:109EA000FDE700BF300100103401001000ED00E0BC
:109EB0000C2B00200090D003E80F00F0E00F00F022
:109EC00000C0004014FE02008C5600404881030090
:109ED00014FE020000F0004014FE020058020010C0
:109EE000E40E004014FE02004096024000E00140F3
:109EF0000400FA05074B1B5C1F2B8ABF064A4FF074
:109F0000A04203F01F03D2F80405D840C04300F07C
:109F1000010070471CFE020000030050064B1A5C53
:109F20001F2A86BF054902F01F024FF0A0410123FE
:109F30009340C1F80C3570471CFE0200000300502E
:109F4000064B1A5C1F2A86BF054902F01F024FF01C
:109F5000A04101239340C1F8083570471CFE020060
:109F6000000300504FF0A04310B44FF480404FF472
:109F700000544FF400414FF48032C3F80845C3F851
:109F80000805C3F80815C3F808255DF8044B7047A9
:109F90004FF0A04310B44FF480404FF400544FF4FE
:109FA00000414FF48032C3F80C45C3F80C05C3F8E8
:109FB0000C15C3F80C255DF8044B70470A4B185C70
:109FC0001F288ABF09494FF0A04100F01F00D1F8B7
:109FD00004350122824022EA03001340C1F808053B
:109FE000C1F80C35704700BF1CFE02000003005092
:109FF000074B1B5C1F2B8ABF064A4FF0A04203F0A1
:10A000001F03D2F81005D840C04300F0010070478C
:10A0100018FE0200000300500B2809D00C2809D0BC
:10A02000182809D019280CBF03204FF0FF307047C3
:10A03000002070470120704702207047014B185CD8
:10A04000704700BF18FE0200C20730B40ED4830769
:10A050000AD54FF0A0430C22C3F82C27C3F83027B1
:10A06000C3F86027C3F8642730BC70474FF0A043A3
:10A070000322C3F834274FF40055C3F838274FF4B0
:10A080008044C3F83C274FF40041C3F840274FF405
:10A090008032C3F80855C3F80845C3F80815C3F85B
:10A0A0000825D4E710B568B90E4CA3680122627088
:10A0B0003BB1D3E900230020A2609847A368002B9E
:10A0C000F7D110BD0128FCD1064C2369A070002BEC
:10A0D000F7D0D3E900230120226198472369002BA0
:10A0E000F7D110BDB832002070B910B5074CA36885
:10A0F000012262703BB1D3E900230020A26098479F
:10A10000A368002BF7D110BD704700BFB832002004
:10A1100030B5012883B004D0032821D0B0B103B0FA
:10A1200030BD294C00230DF107008DF80730FEF7F4
:10A1300017FD23786BB3E3689DF807000133012214
:10A14000E360A270FEF732FD03B030BD1F4B012269
:10A15000C3F88020BFF34F8FBFF36F8F03B030BDC4
:10A16000194C00F0BDF800230DF107008DF8073001
:10A17000FEF7F6FCE368013BE360E3681BB9144BB0
:10A18000D3F80054C5B19DF80700FEF70FFD03B0EA
:10A1900030BD10486360A3602361E36000F094F871
:10A1A00003F036FF60B10A4A01232370D2F800247D
:10A1B000002AC0D0A370BEE700F0A4F8A570E2E7C3
:10A1C00000F08EF8EFE700BFB832002000E100E0B9
:10A1D00000000140A5A0020030B585B004784568B4
:10A1E0008DF80040D0E90240064A074B039053F82F
:10A1F0002130019552F821108DF8084068469847A3
:10A2000005B030BDCC320020D432002030B585B04E
:10A21000047845688DF80040D0E90240064A074BB3
:10A22000039053F82130019552F821108DF8084021
:10A230006846984705B030BDCC320020D4320020AB
:10A240002DE9F047DFF8748090F800E04B7F08F8C4
:10A250000E300D46074616460FCD88B06C460FC42B
:10A2600095E80F003D78DFF85890DFF858C018F8EF
:10A27000055049F82E6084E80F004CF82E00CDF808
:10A2800010E05DB1002E0B4A694607F1040008BFDB
:10A29000324601F0ADF808B0BDE8F087002E064A5E
:10A2A000694607F10C0008BF324600F0DDFD08B03A
:10A2B000BDE8F087D9A102000DA20200903E002067
:10A2C000D4320020CC320020044A137923B9012172
:10A2D000106091801846704785207047DC3200205E
:10A2E000074B1A68D20704D4C02283F80023012246
:10A2F0001A604FF080430122C3F81825704700BF51
:10A3000000E100E010B40B4B0B494FF080420020FD
:10A310000224C2F8084383B018601B68019301232C
:10A3200001980B60D2F81834DB03FBD403B05DF85E
:10A33000044B7047040100400C00004010B5174B5F
:10A340001A6882B062B10021154A19601B68507901
:10A3500000934FF080410123009CC1F8083398B16D
:10A36000104B1A68BAB100221A601B6801934FF0B3
:10A37000804202210A4B0198C2F808131B68012091
:10A3800002B0BDE810401847116853718847054B6B
:10A390001A68002AE7D102B010BD00BF00010040DA
:10A3A000DC32002004010040F0B5264C94F86A30FD
:10A3B00083B0002B42D14FF6FF70FF255A09012AC6
:10A3C0000CBF02464FF0FF3203F01F01CA40D20714
:10A3D00048BFE21803F1010348BF82F83050302B28
:10A3E000ECD14FF0FF334FF0FF364FF0FF3706222E
:10A3F000002115482366C4E90233C4E90433C4E9E3
:10A400000633C4E90833C4E90A33C4E9006703F03A
:10A41000EFFF0E4BC02283F8062340221A600C4B3C
:10A420000C4A002018601B68019301214FF0004383
:10A43000019D84F86A10C2F8043300E0082003B0DC
:10A44000F0BD00BFE83200204C33002000E100E006
:10A450007C61004000600040034B93F86A000038C4
:10A4600018BF0120704700BFE8320020F0B4754BE0
:10A470001D1895F93040002C61DA8C78A707C4F3D9
:10A48000400C53D41C6A013400F0D5805C6A01345E
:10A4900000F0CA800C260A2453F82450013552D00B
:10A4A000651CB5423FD253F82570013700F0B480E7
:10A4B000A51CB54237D253F82570013700F0AC80A7
:10A4C000E71CB7422FD253F8275001353AD0271D49
:10A4D000B74228D253F82750013533D0671DB74211
:10A4E00021D253F8275001352CD0A71DB7421AD2DC
:10A4F00053F82750013525D0E71DB74213D253F842
:10A50000275001351ED004F10807B7420BD253F88B
:10A510002750013516D00934B44204D2DC6A013424
:10A5200008BF0B240FD00420F0BC70471C68013416
:10A5300074D05C6801346DD008260224ACE7082092
:10A54000F0BC70473C461E1865B243F8242086F8DC
:10A550003050BCF1000F02D11C4484F858008A78B6
:10A5600054071AD4D60744D41F284C7887BF364ED8
:10A5700000F01F0202464FF0A04602F5E072A40070
:10A5800046F82240314EC40800F0070C375D012226
:10A5900002FA0CF23A4332558A7812F002021CD0C9
:10A5A000AB0003F1804303F5C0430978D3F81045AD
:10A5B00024F44F3424F44074C3F810450202090413
:10A5C000D3F8100501F4403102F47C520A430243EF
:10A5D000C3F810250020F0BC7047083D2B440878D4
:10A5E00093F8601041EA801183F860101046F0BCC7
:10A5F00070471F2887BF144A00F01F0404464FF01D
:10A60000A04202EB8402D2F8004724F00204C2F810
:10A610000047B7E7012496E72C4694E7002485F825
:10A6200030401A6025469AE7092685F830605A625C
:10A630003446354690E7082685F830601A6234467D
:10A64000354689E7E8320020000300504C330020F3
:10A6500070B4324C251883B095F93030072B22DDC9
:10A66000234493F858309B09032B46D0012B0CBF91
:10A670004FF400324FF440321F288ABF284B4FF06E
:10A68000A04300F01F0003EB8000D0F8003723F454
:10A690004033C0F80037D0F800371A43C0F800271D
:10A6A00003B070BC7047DAB2072AF9D8980000F1FD
:10A6B000804000F5C04003F140029200D0F81065E0
:10A6C00092B202F1804202F5C04246F00106C0F8A3
:10A6D00010650020106012680192019A0029DFD0F5
:10A6E00095F9302054F82220002AD9D00D490122B2
:10A6F00002FA03F3C1F80433D2E71F288ABF084ADD
:10A700004FF0A04200F01F03D2F8102598BF034677
:10A71000DA4002F0010202321204ADE7E832002012
:10A7200000030050006000401F288ABF054B4FF017
:10A73000A04300F01F00D3F8103523FA00F000F01A
:10A7400001007047000300502DE9F047002384B05A
:10A75000CDE90233D54A1168012900F040821E4636
:10A76000D34B1A68012A00F02C82D24B1A68012AB6
:10A7700000F01982D04B1A68012A00F00682CF4BF4
:10A780001A68012A00F0F381CD4B1A68012A00F003
:10A79000E081CC4B1A68012A00F0CD81CA4B1A68BF
:10A7A000012A00F0A181C94B1A68012A20D0E6B124
:10A7B000C74F00240125A30003F18043354203F570
:10A7C000C0434FEA45050BD0D3F8100557F82420B5
:10A7D000D3F81015C0F30520C1F3014102B1904731
:10A7E0000134082CE7D1002E17DB04B0BDE8F08758
:10A7F00000221A601B6801934FF0A042019BD2F81F
:10A800002015B44B0291C2F82015D3F820250392ED
:10A81000C3F82025002E40F08B81AD4CAD4E0125B4
:10A820004FF0A04794F96000431C46D0C0F3C20229
:10A8300004AB1A4400F0070312F8082C05FA03F3DE
:10A840001A42C1B200F03F0037D01F2800F2258124
:10A8500002464FF0A04909EB820304EB000ED3F847
:10A8600000C7D3F8008728F44038C3F80087CCF33A
:10A87000014C9EF93080D3F800E754F82880BCF1F1
:10A88000020F0CBF4FF4403A4FF4003A05FA02F2BF
:10A890004EEA0A0EC3F800E7C9F82025B8F1000F08
:10A8A0000BD08909032900F0B381BCF1020F00F03D
:10A8B000BE81BCF1030F00F0A88194F96100411C36
:10A8C00046D0C0F3C20204AB1A4400F0070312F8EA
:10A8D000082C05FA03F31A42C1B200F03F0037D04A
:10A8E0001F2800F2DE8002464FF0A04909EB8203E8
:10A8F00004EB000ED3F800C7D3F8008728F44038E3
:10A90000C3F80087CCF3014C9EF93080D3F800E700
:10A9100054F82880BCF1020F0CBF4FF4403A4FF4BA
:10A92000003A05FA02F24EEA0A0EC3F800E7C9F847
:10A930002025B8F1000F0BD08909032900F06D81A3
:10A94000BCF1020F00F06B81BCF1030F00F06281DB
:10A9500094F96200421C46D0C0F3C20204AB1A4410
:10A9600000F0070312F8082C05FA03F31A42C1B2EB
:10A9700000F03F0037D01F2800F2AE8002464FF0B3
:10A98000A04909EB820304EB000ED3F800C7D3F80B
:10A9900000879EF930E028F44038C3F80087CCF3F4
:10A9A000014CD3F800A754F82E80BCF1020F0CBF65
:10A9B0004FF4403E4FF4003E05FA02F24EEA0A0E12
:10A9C000C3F800E7C9F82025B8F1000F0BD08909BA
:10A9D000032900F01381BCF1020F00F02481BCF1C7
:10A9E000030F00F0088194F96300431C45D0C0F3C5
:10A9F000C20204AB1A4400F0070312F8082C05FA4F
:10AA000003F31A42C1B200F03F0036D01F2867D8C6
:10AA100002464FF0A04909EB820304EB000ED3F885
:10AA200000C7D3F800879EF930E028F44038C3F817
:10AA30000087CCF3014CD3F800A754F82E80BCF16A
:10AA4000020F0CBF4FF4403E4FF4003E05FA02F2F5
:10AA50004EEA0A0EC3F800E7C9F82025B8F1000F46
:10AA60000BD08909032900F0CE80BCF1020F00F061
:10AA7000E280BCF1030F00F0C380D7F820250292DA
:10AA8000C7F82025D6F820350393C6F820351343A0
:10AA90007FF4C8AE04B0BDE8F08701F01F02B146F4
:10AAA000D9E601F01F02B14620E700BF0061004077
:10AAB00004610040086100400C61004010610040EA
:10AAC00014610040186100401C6100407C6100403E
:10AAD000E83200200003005001F01F02B14650E7A9
:10AAE00001F01F02B14696E7554AD2F80423120638
:10AAF0007FF559AE00221A6019680091196E00980E
:10AB0000012903F1600346F080067FF450AE1A601D
:10AB10001B6801934FF0A042019BD2F82015494BCE
:10AB20000291C2F82015D3F820250392C3F82025FE
:10AB300046F000463CE6424AD2F8042351067FF52F
:10AB40002DAE00221A601B680093009B46F0400661
:10AB500024E63B4AD2F8042390067FF51AAE002281
:10AB60001A601B680093009B46F0200611E6344AE9
:10AB7000D2F80423D4067FF507AE00221A601B68C2
:10AB80000093009B46F01006FEE52D4AD2F8042300
:10AB900015077FF5F4AD00221A601B680093009B37
:10ABA00046F00806EBE5264AD2F8042357077FF55E
:10ABB000E1AD00221A601B680093009B46F004067A
:10ABC000D8E51F4AD2F8042392077FF5CEAD0022C4
:10ABD0001A601B680093009B46F00206C5E5184901
:10ABE000D1F8046316F001063FF4BAAD13601368A0
:10ABF0000093009BB4E502297FF4F5AEC047F2E66E
:10AC000002297FF43AAFC04737E702297FF455AEF7
:10AC1000C04752E602297FF49BAEC04798E601295F
:10AC20007FF496AEF9E701297FF4DDAEE6E701296E
:10AC30007FF443AEECE701297FF41FAFE3E700BFE9
:10AC40000060004000030050014B1B68184700BF24
:10AC500054330020114B98421DD130B583B00023EE
:10AC60000DF107008DF807300D46FDF779FF0C4B0D
:10AC70001C794CB99DF807001D6001221A71FDF77F
:10AC800095FF204603B030BD9DF80700FDF78EFF0D
:10AC9000112003B030BD0020704700BF00200040ED
:10ACA0005433002030B56E4AD2F8043399058BB086
:10ACB00068D5D2F82431002B64D00023C2F82431A7
:10ACC000D2F8243101934FF40171664B0198C2F818
:10ACD000081393F8291009B9012151606049022233
:10ACE0008DF81820D1F88024C1F880249869D9689B
:10ACF000099200240025CDE90710C3E90645D3E9F0
:10AD0000001206A89047564AD2F81C31C3B1554BE1
:10AD10005869196A88426AD993F8281001F0FF002F
:10AD2000002964D1C2F81C01D2F81C1103910399C7
:10AD30009C68186A196A205C01311962C2F81C0506
:10AD4000474AD2F84431DBB10021464BC2F84411E6
:10AD5000D2F8440193F829100090009809B101211C
:10AD600011609A6962B1586AD96800229A61012219
:10AD7000CDE907108DF8182006A8D3E900129047F6
:10AD80000BB030BD364AD2F804335B07BBD5D2F8DE
:10AD90000831002BB7D0334B996900293ED00021F0
:10ADA000C2F80811D2F8081104910499D868596AB8
:10ADB000D2F8182542545A6A996901325A625A6A7D
:10ADC0008A42A0D1DA69002A31D0DD685C6A18694C
:10ADD0009A6101210022D860DA615A628DF8181058
:10ADE000CDE90754D3E9001206A890478BE71C4A27
:10ADF0000021C2F81C11D2F81C210292029A5A6951
:10AE0000002A9DD058699A688DF8181008905961E9
:10AE1000079206A8D3E90012904791E7C2F80811FB
:10AE2000D2F8080105900598D2F81825C7E793F8DD
:10AE3000292012B90A4A01215160094A4FF40171CF
:10AE4000C2F80813596ADA680891002401200792B1
:10AE50008DF81800D3E900129C6106A8904752E7CC
:10AE600000200040603300202DE9F041DFF8E4814C
:10AE700006792C2303FB068382B093F82A30002B3B
:10AE800040F09E8005460C4600686D491746FFF766
:10AE9000E1FE002840F090802368591C19D01F2B38
:10AEA0004FF001028ABF67494FF0A04103F01F0332
:10AEB00002FA03F3C1F8083523681F2B86BF03F09D
:10AEC0001F03604A4FF0A04203F5E073032142F8EC
:10AED000231063685A1C0BD01F2B86BF03F01F037F
:10AEE000584A4FF0A04203F5E073002142F82310C6
:10AEF0002B68A269C3F82425217D637D2A680B4352
:10AF0000C2F86C35D4E900122B68C3F81425C3F8D5
:10AF10000C15237D012B5FD02C2303FB06F308EBDC
:10AF200003025760226948F803202A6897B300217A
:10AF3000237FC2F81C11D2F81C2100922A68009FBE
:10AF4000C2F84411D2F844112A6801913E4C01998B
:10AF5000C2F804432A6842F3073100294FEA12324B
:10AF600032DB01F1604101F561415B01DBB281F847
:10AF700000332A6842F30733002B4FEA123109DB12
:10AF8000324C01225B0901F01F0102FA01F144F881
:10AF900023102A682C2303FB0686012400230421A6
:10AFA000C2F80015C6E9063386F82A4086F829302B
:10AFB000736102B0BDE8F081112002B0BDE8F081FC
:10AFC000082002B0BDE8F081214902F00F025B01C8
:10AFD0001144DBB20B76CCE7A368591C0BD01F2BB6
:10AFE00086BF03F01F0317494FF0A04103F5E0733C
:10AFF000002241F82320E3685A1C1AD01F2B8ABF75
:10B0000010494FF0A04103F01F03012202FA03F39D
:10B01000C1F80835E3681F2B88BF03F01F0303F551
:10B02000E0738CBF07494FF0A041032241F8232071
:10B03000E3682A68A168C2F80835C2F810156BE702
:10B04000A5AC0200000300508000020000E100E017
:10B05000FCEC00E0603300202DE9F041314E057931
:10B060002C2303FB05630446586984B000284CD1A7
:10B070005A619960186283F828002268C2F81C019E
:10B08000D2F81C11226802910121029F916022686E
:10B09000D3F808C0C2F81C01D2F81C110191019923
:10B0A0001F6A196A1CF8077001311962C2F81C7511
:10B0B0005A6812B104B0BDE8F0815F691A6A21686C
:10B0C00097421BD9864602E093F828200ABBD1F8A4
:10B0D0001C21002AF8D0C1F81CE1D1F81C210392F0
:10B0E000039AD3F820801A6A1CF8088001321A6289
:10B0F000C1F81C851A6A9742E9D82168D1F81C3139
:10B10000002BFBD00123CB6004E0112004B0BDE88C
:10B11000F0810F202C2303FB056500236B6104B035
:10B12000BDE8F081603300200379044A2C2101FB43
:10B1300003235869003818BF01207047603300208E
:10B14000F0B4504F06792C2303FB067386B05D687C
:10B15000044625B103684FF40170C3F808032C239B
:10B1600003FB0673986990B1D86900287CD11961F6
:10B17000DA612C2303FB06735A683AB323684FF451
:10B180000172C3F80423002006B0F0BC704793F8A6
:10B1900029509A61D9605862D861002DE9D123689D
:10B1A000C3F82451D3F8242123680192019AC3F8EB
:10B1B0000851D3F8082123680292012202991A60EB
:10B1C0002C2303FB06735A68002AD7D12168C1F8E3
:10B1D0004421D1F844210392039A2268D2F8241121
:10B1E000D2F80851D2F8440155B9002833D10029CA
:10B1F000F4D02C2303FB06760023B3610320C3E7BE
:10B200000029F6D148BB9969C2F8080181B1D2F88A
:10B21000081104910499DD68596AD2F818256A5416
:10B220005A6A996901325A625A6A9142D5D806E03F
:10B23000D2F8081105910599D2F818255B6A2C23DC
:10B2400003FB0676002296F82930B261A3B1236889
:10B2500001221A6098E70029CBD12C2303FB067644
:10B260000023B3610F208FE755B123684FF40172BB
:10B27000C3F80423112087E7236801225A6083E77B
:10B28000112081E76033002030B5574BD3F82421DB
:10B290008BB0002A75D00022C3F82421D3F82421D2
:10B2A000049202228DF81820049AD3F880144F4A91
:10B2B000C3F880140991D3F83C15D3680891002491
:10B2C00000250793C2E906451168536806A8984708
:10B2D000454BD3F8442152B10021444AC3F84411EC
:10B2E000D3F84401916903900398002938D13E4B6B
:10B2F000D3F820215AB10021C3F82011D3F820211E
:10B3000002920120394A029CD8605069D8B9364B64
:10B31000D3F85821AAB10021C3F85811D3F8580125
:10B32000324A01900198506958B1D3F84C0593689E
:10B3300008908DF818105161079306A8D2E9001300
:10B3400098470BB030BDD3F84C05936808908DF842
:10B3500018105161079306A8D2E900139847D6E761
:10B36000D3F83C35D16808930024002501230791C8
:10B370008DF81830C2E90645D2E9001306A89847AF
:10B38000B5E7D3F810110029A2D0C3F81021D3F8E3
:10B3900010111648059105998469D3F83C15A1420E
:10B3A00096D1C469A4B1D3F80052846125F0200578
:10B3B000C3F80052D0E90343C26101220891C3607F
:10B3C0000168436807948DF8182006A898477FE71E
:10B3D000C26884610123CDE907218DF81830D0E9D6
:10B3E000001306A8984773E7002000409033002020
:10B3F0002DE9F0430779824E07EBC70306EB830381
:10B4000087B093F82030002B40F0B98004460D46F9
:10B4100000687C499046FFF71DFC002840F0AB8097
:10B420002B68591C4FEAC70919D01F2B4FF0010296
:10B430008ABF75494FF0A04103F01F0302FA03F3DE
:10B44000C1F808352B681F2B86BF03F01F036E4A17
:10B450004FF0A04203F5E073032142F823106B681C
:10B460005A1C0BD01F2B86BF03F01F03664A4FF0F8
:10B47000A04203F5E073002142F823102368AA6973
:10B48000C3F82425297D6A7D23680A43C3F86C2507
:10B49000D5E900312268C2F80C35C2F814152B7DAD
:10B4A000012B78D009EB070206EB8203C3F8048076
:10B4B0002B6946F82230B8F1000F4BD021682B7F62
:10B4C000524D0022C1F81021D1F8101101912168CC
:10B4D000DDF804C0C1F82021D1F8201102912168C3
:10B4E000DDF808C0C1F82421D1F8241103912168A6
:10B4F000DDF80CC0C1F84421D1F844110491216851
:10B50000DDF810C0C1F85821D1F858112268059112
:10B510000599C2F80453226842F3073100294FEA23
:10B52000123230DB01F1604101F561415B01DBB2B8
:10B5300081F80033226842F30733002B4FEA1231BF
:10B5400009DB334D01225B0901F01F0102FA01F111
:10B5500045F8231022684F4406EB87060023012498
:10B560000821C2F80015C6E9063386F82040736149
:10B5700007B0BDE8F083112007B0BDE8F0830820D4
:10B5800007B0BDE8F083234902F00F025B011144CC
:10B59000DBB20B76CEE7AB68591C0BD01F2B86BFF6
:10B5A00003F01F0318494FF0A04103F5E073002298
:10B5B00041F82320EB685A1C1AD01F2B8ABF12496E
:10B5C0004FF0A04103F01F03012202FA03F3C1F878
:10B5D0000835EB681F2B88BF03F01F0303F5E073EA
:10B5E0008CBF09494FF0A041032241F82320EB68AA
:10B5F0002268A968C2F80835C2F8101552E700BFE2
:10B600009033002089B20200000300501003420072
:10B6100000E100E0FCEC00E0F0B401F06044B4F1C3
:10B62000005F82B02CD10579274E05EBC50406EBEF
:10B63000840403466069EF0000283ED16261A16086
:10B640001A68C2F82001D2F820C11A68CDF804C0E7
:10B65000DDF804C0C2F85801D2F8582100921A68E7
:10B66000DDF800C0D4F814C0C2F84415C2F848C5CB
:10B670001A6801219160626832B102B0F0BC704773
:10B68000102002B0F0BC70471A6800E0C8B9D2F8C8
:10B690002011D2F858010029F8D090B90121D160C9
:10B6A0001B68D3F85821002AFBD07B1906EB8303D3
:10B6B00000225A6102B0F0BC7047112002B0F0BC09
:10B6C00070470F20F1E700BF903300200379054A4F
:10B6D00003EBC30302EB83035869003818BF012052
:10B6E000704700BF9033002001F06043B3F1005F6A
:10B6F0005ED1F0B40479474D04EBC40605EB860631
:10B7000082B07668E30026B107684FF4047CC7F87E
:10B7100008C3234405EB83039C694CBB9A61DC613D
:10B72000D9600368C3F81041D3F81061036801962B
:10B73000019EC3F84441D3F8444103680094009C3F
:10B74000C3F83415C3F83825036801221A60047958
:10B7500004EBC40305EB8303E6005B6853B30368A3
:10B760004FF40472C3F80423002002B0F0BC704709
:10B77000DC69002C37D11961DA610368C3F8104124
:10B78000D3F8106103680196019EC3F84441D3F8D1
:10B79000444103680094009CC3F83415C3F838256D
:10B7A0000268D2F8003243F02003C2F80032CEE73C
:10B7B00010207047036801E0E9B910BBD3F81021ED
:10B7C000D3F84411D3F82401002AF5D034440028DA
:10B7D0004FF0000305EB840518BF0320994218BF02
:10B7E0000F20AB61C1E796B103684FF40472C3F850
:10B7F00004231120B9E7344405EB84050F20AA6126
:10B80000B3E7344405EB84050320A961ADE71120BB
:10B81000ABE700BF903300200220FEF7CFBB00BF94
:10B820002DE9F0470D460646FEF7F6FB032805D83E
:10B83000012D04461AD0022D27D00DB1BDE8F087A6
:10B840001B48FCF7F7FF1B4B1B4A04EB44010B445E
:10B85000125D9D78AA42F1D1002DEFD0174B1B68E5
:10B86000002BEBD02846BDE8F0471847114F00EBFE
:10B870004003FA18FD5C53784FEA40085BB9A044D6
:10B8800047440D4BBA781A55E6E70A4B00EB4004E3
:10B890001C446578E0E7DFF8289005484A464FF4F5
:10B8A0008041FCF781FF0028E9D189F80060E6E7D4
:10B8B000D833002018340020343400202C340020E9
:10B8C000B433002010B50078FEF7A6FB03280BD890
:10B8D000064B00EB40001844407828B1044B1B682D
:10B8E00013B1BDE81040184710BD00BF1834002048
:10B8F0002C34002038B5C04D2B7804466BB1BF4BBB
:10B900001B7800202870002B4DD0FEF719FB01207A
:10B91000FEF716FB0320FEF713FB172C00F26A81DB
:10B92000DFE814F0F700630063009F00B200C50079
:10B93000D700970050004400500044007A001800DF
:10B940001800180018001800E500240181000C01FF
:10B950005C005C00AA48FCF76DFFD4F111040546B9
:10B9600000F03281002840F02F81012C14D0C82330
:10B9700003FB04F44FF47A704FF400430021C3FB3F
:10B9800004014FF4FA62002303F022FD2A46014627
:10B990009B48FCF709FF05460220FEF7BFFA974BCC
:10B9A00001221A701FE0FEF7DDFAB6E701202870C9
:10B9B000FEF704FBBDE83840924800224FF40051E6
:10B9C000FCF7F2BE01202870FEF7F8FABDE8384017
:10B9D0008C48002240F26661FCF7E6BEFEF7D8FA1A
:10B9E000894B00251C70284638BD0020FEF782FADE
:10B9F000002840F0CF80FEF791FA40F6CD4141F6A5
:10BA00009A13022C18BF19467F4B7E481C70BDE864
:10BA100038400022FCF7C8BEFEF7BAFA7A4B0C2277
:10BA20001A700025DFE7754B1B78002B00F0DF80D4
:10BA30000020FEF785FA0120FEF782FA0320FEF7C8
:10BA40007FFA0120FEF76AFA6F4B14221A70002564
:10BA5000C9E70020FEF762FA6B4B07221A70002537
:10BA6000C1E70020FEF746FA002840F0A780FEF765
:10BA700055FA40F6CD41644B624803241C70BDE882
:10BA800038400022FCF790BE0020FEF733FA002871
:10BA900040F08E80FEF742FA41F69A115A4B59480F
:10BAA00004241C70BDE838400022FCF77DBE002055
:10BAB000FEF720FA002877D1FEF730FA524B5148B2
:10BAC00005241C70BDE83840002240F6CD41FCF74B
:10BAD0006BBE0020FEF772FA4B4B4A4806241C70DE
:10BAE000BDE83840002240F26661FCF75DBE434B82
:10BAF0001B78002B78D00020FEF722FA0120FEF7F9
:10BB00001FFA0320FEF71CFA3F4B12221A70002581
:10BB100069E73A4B1B78002B60D00020FEF710FA43
:10BB20000120FEF70DFA0320FEF70AFA3548FCF76C
:10BB300081FE354B002205461A7054E72F4B1B78C7
:10BB4000002B48D00020FEF7FBF90120FEF7F8F9A2
:10BB50000320FEF7F5F90020FEF7E0F90120FEF7DB
:10BB6000DDF9294B15221A7000253CE7234B1B7881
:10BB7000BBB30020FEF7E4F90120FEF7E1F9032052
:10BB8000FEF7DEF90020FEF7C9F91F4B13221A70E9
:10BB9000002528E70020FEF7D3F9022C47F23331C5
:10BBA00018BF4FF480312FE70020FEF7C9F985E771
:10BBB0000020FEF7C5F94FF480316FE70020FEF753
:10BBC000BFF943F2333156E70220FEF7B9F90B4BC8
:10BBD00000221A7007E7FEF7C5F9BCE7FEF7C2F9C5
:10BBE000A4E7FEF7BFF9CDE7FEF7BCF98CE7FEF757
:10BBF000B9F926E70025F6E628340020B533002001
:10BC0000B8330020F833002030340020044B1B6888
:10BC1000DB0700D47047034B1878FFF76BBE00BFFB
:10BC20002434002030340020032801D9002070473C
:10BC3000FEF7DEB9044B1B6813F0010301D118466F
:10BC40007047FFF757BE00BF2434002038B5244B9F
:10BC5000244A196081070446106004D410F00105DD
:10BC60002CD1284638BD204B20480E250F2210210C
:10BC70001D701125DA7099715D7240F23332042122
:10BC8000FCF7BAFA054630B1E207EAD50120FEF723
:10BC9000DBF9284638BDFCF70FFB05460028F3D139
:10BCA0000146134A1348FCF771FDE3070546D8D552
:10BCB0000120FEF7C9F9002DD3D102E00120FEF7E3
:10BCC000C3F90D4A0D480021FCF760FD0546002828
:10BCD000C7D1BDE838400A4A0A480121FCF756BDE1
:10BCE0002C34002024340020183400204CFE0200A4
:10BCF000C5B8020070FE02000DBC020074FE020016
:10BD000019B802006CFE0200032806D8012A06D0EA
:10BD100001291BD0022908D071B1072070470129E1
:10BD200011D002294FF00002F6D10B4B00EB40007E
:10BD3000034400205A707047074B00EB4000034457
:10BD400008469A70704700F10E02D2B200EB400331
:10BD500001490020CA54704718340020032801D933
:10BD60000620704708B5FEF769F91F2886BF0A4B01
:10BD700000F01F004FF0A04303EB80030020D3F836
:10BD8000002722F44032C3F80027D3F8002742F4FA
:10BD90004032C3F8002708BD0003005010B50388E7
:10BDA000102B07D0112B04D1254B186801381860CF
:10BDB00030B110BD224C216811B30131216010BD9A
:10BDC00001220221FFF7A0FF40B1072806D01D4B3A
:10BDD0001B68002BEDD0BDE8104018470722022158
:10BDE0000120FFF791FF08B10728F0D10021084694
:10BDF0000A22FFF789FF0028DBD00728E7D1D8E720
:10BE000001220846FFF780FF38B1072805D00D4B07
:10BE10001B6803B198472168CFE707220221012060
:10BE2000FFF772FF08B10728F1D104220221002098
:10BE3000FFF76AFF0028EED00728E8D1EBE700BF44
:10BE40003C3400203834002008B50020FFF786FF7E
:10BE500010B1062800D008BD0120FFF77FFF0028A1
:10BE6000F9D0062808BF002008BD00BF184B10B548
:10BE7000186031B101200C46FFF7D6FEF8B102235D
:10BE80002370144B186808B1002010BD0122022154
:10BE9000FFF73AFF08B10728F7D107220221012056
:10BEA000FFF732FF08B10728EFD1002108460A2228
:10BEB000FFF72AFF0028E7D00728E5D010BDFFF7DD
:10BEC000B3FE10B10B232370DBE72070D9E700BF6E
:10BED000383400203C34002076DF70477ADF70472A
:10BEE0007CDF70477FDF70478FDF7047B1DF7047BF
:10BEF00033DF7047FCF7F6B910B50388212B82B009
:10BF000004460FD80F2B18D9103B112B15D8DFE89A
:10BF100003F0243C144C14141414141414141414A6
:10BF20001414141A522B4AD0562B08D1A08813216E
:10BF3000FFF7D2FF08B1FCF7D5F902B010BD3B2BDB
:10BF4000F4D002B010BD00238088ADF8043001A900
:10BF5000FFF7CAFF0028F0D0EDE71F4B1F4820492C
:10BF6000C01AC008000440F00300FBF7F7FB0720ED
:10BF7000FFF760FE00282CD11A4BA1881A481980BF
:10BF800001F0DEFD0028D8D0D5E7134B1348174940
:10BF9000C01AC008000440F00300FBF7DFFB114BA0
:10BFA0004FF6FF721A8002B010BD0E4A00231088AF
:10BFB00085211A46FFF796FF0028BED0BBE7094A45
:10BFC0000023108819461A46FFF790FF0028B4D0C6
:10BFD000B1E7FCF787F9CFE7BC050300E4050300F0
:10BFE00078FE0200162B00208439002084FE020017
:10BFF0000E4B4A881B889A4200D070470A8840F648
:10C0000077239A42F9D110B4094A0A488B880A4C1E
:10C010000A49801A033BC0089BB20004238040F009
:10C0200003005DF8044B1A46FBF72ABD162B0020CF
:10C03000BC050300E4050300142B002094FE02005D
:10C0400008B5037803B108BD054B3B211888FFF7FD
:10C0500043FF0028F7D0BDE80840FCF743B900BF14
:10C06000162B0020072808B51CD00A280ED004285B
:10C0700000D008BD154B13211888FFF72DFF30F0B5
:10C080000803F6D0BDE80840FCF72CB90020FFF704
:10C09000D1FDB8B9FFF7D8FE88B9FFF729FF00280E
:10C0A000F0D108BD094B1A884FF6FF739A42E0D1D0
:10C0B000074801F015F830F00803E3D108BDFCF79C
:10C0C00011F9EAE7FCF70EF9E4E700BF162B0020B0
:10C0D00038350020F0B50378012B83B004D0022B53
:10C0E00002D033B103B0F0BD4068FCF7FBF803B0F9
:10C0F000F0BD194C194D20782844FCF7C9FC227872
:10C100000132D2B21544227015F8013C0A2B05D039
:10C110000D2B03D0124B1B889342E3D8012A12D96E
:10C12000104F0E4E104DADF806203B880DF1060263
:10C130003146284601F0A8FE082804D0132806D06E
:10C14000052800D028B90023237003B0F0BD227861
:10C15000E9E7FCF7C7F8F6E7343500204034002063
:10C16000142B0020162B0020182B00202DE9F04165
:10C170000578D5B9838A06467BB3194F194BDFF88A
:10C180006880FF1AFF083F0447F001073369585DD4
:10C19000FCF7ACFC0446A8B9B38A0135AB42F5D82C
:10C1A000013B3269D35C0D2B01D0BDE8F0810A2040
:10C1B000FCF79CFC1128F8D10A20FCF797FC112809
:10C1C000F5D0F2E7112C024641463846DED0FBF7A7
:10C1D00089FB2046FCF786F8DEE74FF0FF33E0E707
:10C1E000E4050300BC050300B0FE0200FCF77AB8CA
:10C1F00008B530B1032803D10220FFF71BFD50B969
:10C2000008BDFFF717FD50B9FFF71EFE68B9FFF72D
:10C210006FFE0028F4D0BDE80840FCF763B8FCF7D7
:10C2200061F8FFF711FE0028F1D0FCF75BF8EEE7AC
:10C2300008B50B490B4801F065FB28B90948F721FF
:10C2400001F078FB40B908BDFCF74CF80548F72130
:10C2500001F070FB0028F6D0BDE80840FCF742B8BA
:10C26000F1BF02006C39002000B5874D874BB1B09B
:10C2700004AC00930FCD0FC495E803004FF4807316
:10C2800084E803000193824C0393824A0294694636
:10C2900004A80723FCF780FB002840F0C4804FF47B
:10C2A00080410020FBF7E4F8002840F0E980FBF72C
:10C2B000CFF8FCF735FA002840F0DF8076490320FC
:10C2C000FFF7C4FC002840F0D58004A90020FFF748
:10C2D000CDFD002840F0CB80FDF7E8FB002840F0C2
:10C2E000C38001F009FE002840F0BB80002304A9B0
:10C2F0000120049301F0E0FE002840F0AF8004A884
:10C3000001F0B8FF002840F0A680112363488DF8A3
:10C31000003002F095F8614982B26846FFF7E0FD0F
:10C32000002840F095800822002104A802F060F85F
:10C330005B4B049304A84FF0C8730593FFF7CEFD41
:10C34000002840F08280FFF773FF564B5648049355
:10C3500004A901F0E3FB002874D1002104226846FF
:10C3600002F046F8514B52480093694601F018FD1F
:10C37000002864D1AC22002104A802F039F84D4C09
:10C380004D4A189402214FF4A06001238DF810103B
:10C39000ADF81200402444F250654848ADF85C30D6
:10C3A00004A9CDE926458DF88C302D9200F0D0FD02
:10C3B000002841D14148012100F0C6FD1C22002186
:10C3C00004A802F015F800233D4A0493ADF81E308E
:10C3D0008DF820303B4B4FF4A0354FF4F02403216F
:10C3E00004A8CDE90554CDE909238DF81C1000F00F
:10C3F000D5FFF0B9344802F003F8344B34483549DE
:10C40000C01AC008000440F00300FBF7A7F92B484E
:10C41000032100F019FE48B9FBF778F80028FBD19A
:10C42000FDF75AFBF8E7FBF75DFF38E7FBF75AFF2C
:10C43000F2E7FBF757FFDDE7FBF754FFBAE7FBF73F
:10C4400051FF97E7FBF74EFF87E7FBF74BFF7AE7D4
:10C45000FBF748FF67E7FBF745FF56E7FBF742FFAF
:10C460004DE7FBF73FFF41E7FBF73CFF39E7FBF701
:10C4700039FF31E7FBF736FF27E7FBF733FF1DE70F
:10C48000FBF730FF13E700BF28FF020090390020C0
:10C49000903A0020D5C0020065C00200DCFE020018
:10C4A00010003C00F5BE0200843900206DC102007E
:10C4B000182B0020102B0020F1C10200383500207D
:10C4C00041C00200EDC10200E8FE0200BC0503000D
:10C4D000E4050300FCFE02002DE9F04FDFF8B09107
:10C4E00000EB400509EBC50583B0EE6A012E074657
:10C4F0008A4690464FEA400407D0022E4FD056B3EA
:10C500000026304603B0BDE8F08FAE6AD5F824B0FF
:10C510005E457DD9013EA6EB0B062D6A464528BF38
:10C520004646A5EB0B0296427ED27B1C03EB4303EF
:10C5300009EBC303324658685146584401F04AFF9C
:10C54000274409EBC70906EB0B023046C9F8242043
:10C5500003B0BDE8F08FAB6AD5F824B05B459CBF53
:10C560002A6A9B18013BA3EB0B039845C9D80444E6
:10C5700009EBC4040137256AA5EB0B0607EB470757
:10C58000B04509EBC7096FD2D9F8040042465844B8
:10C5900001F020FF08EB0B0363624646B1E7013769
:10C5A00007EB47076C6AFF000026AB6AA34203F162
:10C5B000FF3222D9131B2A6A434509EB0701A2EB7C
:10C5C000040B28BF43469B45486828BF9B46204430
:10C5D00051465A4601F0FEFE2B6A5C449C425E4482
:10C5E000A8EB0B08DA440DD06C62B8F1000F88D0CC
:10C5F000AB6AA34203F1FF32DCD82A6A1344013B41
:10C600001B1BD9E700246C62B8F1000FCDD178E78D
:10C610002D6A2E44013EA6EB0B06464528BF464632
:10C62000A5EB0B02964280D307F1010808EB4808FE
:10C6300009EBC8085146D8F804000192584401F0AB
:10C64000C9FE751B019AD8F804005D440AEB02018B
:10C650002A4601F0BFFE274409EBC7093046C9F856
:10C66000245003B0BDE8F08FD9F804005844C34407
:10C670003246ABEB050501F0ADFE0AEB0601D9F839
:10C6800004002A4601F0A6FE4646656239E700BF6F
:10C69000943E002038B5114C114B1248E36110252F
:10C6A0004FF40073104A11492362E06400232565AA
:10C6B000E01D0225A3626362E362A3656365E3652F
:10C6C000A261A264C4E9045501F0B2FE0849204603
:10C6D00001F0AEFE2023A37138BD00BF943E0020C0
:10C6E000A03B0020903B002040FF02004CFF0200D6
:10C6F00050FF02006DDF704779DF70477DDF7047C4
:10C7000064DF70472DE9F04F87B00746119D008820
:10C710002C880394BDF84840DDF840A0CDE90142E3
:10C72000002858D04FF0000988461E46CB4604E04A
:10C730003A880BF1010B93452CDAD8F8002052F817
:10C740002B00059000220DF1130105A8FFF7D8FF7B
:10C75000044658BB9DF81320B242E9D1B9F1000F4D
:10C7600028D02A88019B9119994239DC52440DF155
:10C77000130105A84FF00109FFF7C2FF002834D1CB
:10C7800029889DF813200A442A803A880BF1010B6E
:10C790009345D2DBB9F1000F1DD02B88039A013BE2
:10C7A0009B1A9BB2FF2B1BD80AF80230204607B019
:10C7B000BDE8F08F2A88019B511C324402329A4214
:10C7C00089B20DDC029B29800AF801302A880132E7
:10C7D00092B22A80CAE70024204607B0BDE8F08F55
:10C7E0000C24204607B0BDE8F08F0446204607B071
:10C7F000BDE8F08F2DE9F04700231788138090F8EB
:10C800002D3088B0144605460E46002B40F00081BE
:10C81000AA78002A40F0F580E978A1B1DA1CBA4282
:10C8200000F2F2800222F254238801339BB20122EB
:10C830002380F254238813449BB22380F15423882D
:10C8400013449BB223806A68AAB1D91CB94200F292
:10C85000DB80022192F90020F154238801339BB23E
:10C860000A212380F154238801339BB22380F254A0
:10C870002388013323802B89002B40F0F3802B8AFF
:10C88000002B40F02B812B8B002B40F046812B6A34
:10C89000002B44D02088821DBA4200F2B5801A884D
:10C8A000052A40F299816FF4486802EB080189B2C9
:10C8B0004FF27D3C614540F28F815988052940F255
:10C8C0008B816FF4486E8E441FFA8EFEE64540F26F
:10C8D00083814FF6FF7C624504D0614502D08A42D5
:10C8E00000F27A81052232542288013292B212215A
:10C8F0002280B1542288013292B222801988B15428
:10C900003244090A51702288023292B222805B8836
:10C91000B35432441B0A53702388023323806B6A5A
:10C92000002B2FD09988B4F800C0881C0CF10202AB
:10C930000244BA4268D8FE2866D8033106F80C10C3
:10C940002288013292B2FF212280B1542288013222
:10C9500092B222801988B1543244090A5170208859
:10C96000023080B220809A8862B1996805930029CC
:10C9700000F03281304401F02DFD059B9A88238818
:10C980001344238095F82C30002B40F0E380287866
:10C9900000283AD02B88012B00F01E8123889A1C96
:10C9A000BA4231D8012804D16978023119448F4242
:10C9B0002AD3023FFF1ABFB2B01806A9ADF818700B
:10C9C000FFF79CFE08BB2B78022B00F00D816978E5
:10C9D000BDF818209142C0F003819742C0F0008159
:10C9E00017460922FE2F0FD82388791CF15423887B
:10C9F00001339BB22380F254238801331F442780E4
:10CA000003E00433BB424CD90C2008B0BDE8F087EA
:10CA1000082FF9D906A8FFF76DFE0028F5D1238865
:10CA20000822F254238801339BB21B222380F25444
:10CA30002088013080B22080062230440DF1190197
:10CA400001F0C8FC23889DF8182006339BB212F031
:10CA5000FE0218BF01222380F254238801339BB2C7
:10CA60002380D5E605F10808022305F10C01CDE984
:10CA70000147009640461A460591FFF743FE0028FD
:10CA8000C3D1CDE9014705990096404610230622FF
:10CA9000FFF738FE0028B8D12B8A002B3FF4F3AE05
:10CAA0001CE006A8FFF728FE0028AED12388BDF8B9
:10CAB00018200321F154238801339BB219212380CC
:10CAC000F154238801339BB2F1182380F254130AE6
:10CAD0004B70238802339BB223809DE605F110083A
